{
  "contractName": "DkToken",
  "abi": [
    {
      "inputs": [],
      "payable": false,
      "stateMutability": "nonpayable",
      "type": "constructor"
    },
    {
      "constant": true,
      "inputs": [],
      "name": "totalSupply",
      "outputs": [
        {
          "internalType": "uint256",
          "name": "",
          "type": "uint256"
        }
      ],
      "payable": false,
      "stateMutability": "view",
      "type": "function"
    }
  ],
  "bytecode": "0x6080604052348015600f57600080fd5b506305f5e1006000819055506084806100296000396000f3fe6080604052348015600f57600080fd5b506004361060285760003560e01c806318160ddd14602d575b600080fd5b60336049565b6040518082815260200191505060405180910390f35b6000548156fea265627a7a72315820f6f45b1e461fe1d395bf4ed0432db8fd921ca1ae6b7c06b8527f167280ab0e0d64736f6c634300050c0032",
  "source": "pragma solidity >=0.4.2;\n\ncontract DkToken {\n\n    uint256 public totalSupply;\n\n    constructor() public {\n        totalSupply = 100000000;\n    }\n\n\n}",
  "sourcePath": "/Users/dhruminkhatri/Documents/Node_js/token_sale/contracts/DkToken.sol",
  "compiler": {
    "name": "solc",
    "version": "0.5.12+commit.7709ece9.Emscripten.clang"
  },
  "schemaVersion": "3.0.20",
  "updatedAt": "2019-12-21T16:35:44.174Z",
  "networkType": "ethereum",
  "devdoc": {
    "methods": {}
  },
  "userdoc": {
    "methods": {}
  }
}